:100000000C9463000C948B000C948B000C941004E3
:100010000C9410040C9410040C948B000C948B0022
:100020000C948B000C948B000C948B000C948B0024
:100030000C948B000C948B000C948B000C948B0014
:100040000C94C6030C948B000C948B000C948B00C6
:100050000C948B000C948B000C948B000C948B00F4
:100060000C948B000C948B000000000024002700EF
:100070002A0000000000250028002B0000000000DE
:1000800023002600290004040404040404040202DA
:100090000202020203030303030301020408102007
:1000A0004080010204081020010204081020000012
:1000B0000008000201000003040700000000000027
:1000C00000002306BB0611241FBECFEFD8E0DEBF21
:1000D000CDBF11E0A0E0B1E0E4E2FEE002C0059097
:1000E0000D92A038B107D9F722E0A0E8B1E001C035
:1000F0001D92A430B207E1F710E0C2E6D0E004C0E0
:100100002197FE010E94FF06C136D107C9F70E9460
:1001100088040C9405070C940000AF92BF92CF9214
:10012000DF92EF92FF920F931F93CF93DF936C01B7
:100130007B018B01040F151FEB015E01AE18BF0898
:10014000C017D10759F06991D601ED91FC9101904A
:10015000F081E02DC6010995892B79F7C501DF9162
:10016000CF911F910F91FF90EF90DF90CF90BF90B4
:10017000AF900895833081F028F4813099F0823077
:10018000A9F008958730A9F08830C9F08430B1F41F
:10019000809180008F7D03C0809180008F77809355
:1001A0008000089584B58F7784BD089584B58F7DD0
:1001B000FBCF8091B0008F778093B000089580913D
:1001C000B0008F7DF9CF1F93CF93DF93282F30E0BE
:1001D000F901E255FF4F8491F901E656FF4FD491A2
:1001E000F901EA57FF4FC491CC23A9F0162F8111D2
:1001F0000E94BA00EC2FF0E0EE0FFF1FEE58FF4F09
:10020000A591B4918FB7F894EC91111108C0D095D5
:10021000DE23DC938FBFDF91CF911F910895DE2BFA
:10022000F8CFCF93DF9390E0FC01E656FF4F249187
:100230008A579F4FFC0184918823D1F090E0880F6A
:10024000991FFC01E859FF4FA591B491FC01EE58AC
:10025000FF4FC591D49161110EC09FB7F8948C9156
:10026000E22FE0958E238C932881E223E8839FBFC1
:10027000DF91CF9108958FB7F894EC91E22BEC9336
:100280008FBFF6CF3FB7F8948091C5019091C6011A
:10029000A091C701B091C80126B5A89B05C02F3F0A
:1002A00019F00196A11DB11D3FBFBA2FA92F982F9C
:1002B0008827BC01CD01620F711D811D911D42E097
:1002C000660F771F881F991F4A95D1F708958F925F
:1002D0009F92AF92BF92CF92DF92EF92FF924B012B
:1002E0005C010E9442016B017C010E9442016C1979
:1002F0007D098E099F09683E734081059105A8F329
:1003000021E0821A9108A108B10888EEC80E83E0A6
:10031000D81EE11CF11C81149104A104B10429F739
:10032000FF90EF90DF90CF90BF90AF909F908F9015
:10033000089508952091CB013091CC0128173907F9
:1003400071F49091C9018091CA01981741F0E09130
:10035000C901F0E0E058FE4F808190E008958FEFF2
:100360009FEF08950895EF92FF920F931F93CF93FD
:10037000DF93DC015C96ED90FC905D97E114F10455
:1003800079F481E090E013969C938E93129790E01D
:1003900080E0DF91CF911F910F91FF90EF90089532
:1003A0005196ED91FC91529750968C915097982FC1
:1003B00090950FB75E962C915E97122F127021FDCB
:1003C0006095F8942081112319F1282B2083E701EF
:1003D0002197F1F728E0462F50E0308160FF1AC0E6
:1003E000382B3083E7012197F1F7BA0175956795AE
:1003F000215089F7112381F08081892380830FBFE9
:100400005C968D919C910197F1F781E090E0C1CFCE
:100410002923DCCF3923E5CF9081892BEFCF2091A1
:10042000CB013091CC012817390771F48091CA01B2
:100430002091C90190E0805C9F4F821B910960E48C
:1004400070E00E94D706089590E080E00895209122
:10045000CB013091CC0128173907B9F49091C9012B
:100460008091CA01981789F0E091C901F0E0E05845
:10047000FE4F80812091C90130E02F5F3F4F2F73E5
:1004800033272093C90190E008958FEF9FEF0895DF
:1004900090E080E00895FB0101900020E9F731979A
:1004A000AF01461B570BDC01ED91FC910280F381FB
:1004B000E02D0994CF93DF93BC018DEC91E00E9475
:1004C0004B02EC016EE171E08DEC91E00E944B0279
:1004D0008C0F9D1FDF91CF910895CF93DF93EC0197
:1004E00060E08E810E94E30061E08E810E94E30063
:1004F00060E08E810E94E3008BE891E00197F1F7C4
:10050000DF91CF910895CF92DF92EF92FF920F93F8
:100510001F93CF93DF936C017C0187E0E80EF11C01
:10052000D0E0C0E0062F10E0B8010C2E02C0759597
:1005300067950A94E2F76170F70181917F010E944B
:10054000E3002196C430D10579F7C601DF91CF9140
:100550001F910F91FF90EF90DF90CF900C946D0260
:10056000CF92DF92EF92FF920F931F93CF93DF937F
:10057000EC01F62E642F8C810E94E3008D818F3F69
:1005800019F060E00E94E3000F2D10E08F8584FFDA
:1005900025C06E0187E0C80ED11CF12CE12CB801FA
:1005A0000E2C02C0759567950A94E2F76170F6010A
:1005B00081916F010E94E300FFEFEF1AFF0A88E0CC
:1005C000E816F10461F7CE01DF91CF911F910F91F1
:1005D000FF90EF90DF90CF900C946D02B80184E013
:1005E000759567958A95E1F7CE010E9483026F2D7C
:1005F000CE01DF91CF911F910F91FF90EF90DF908F
:10060000CF900C94830240E0682F8CEE91E00C9424
:10061000B00281E00E9403038BE39FE10197F1F7B1
:100620000895CF93DF93823029F49091FB01986075
:100630009093FB018093FF011092000280E480936D
:10064000010280E18093020280E58093030261E071
:100650008091F0010E9411018091F1018F3F19F00A
:1006600061E00E94110161E08091F2010E9411019C
:10067000CCEED1E09E012C5E31408091FB0184FDE7
:100680000BC084E090E021962817390744F461E01C
:100690008E810E941101EECF88E090E0F4CF8BE3D1
:1006A0009DE00197F1F760E08091F0010E94E30086
:1006B00060E08091F2010E94E3008091F1018F3FA0
:1006C00019F060E00E94E3008091FB0184FD34C0DA
:1006D00063E08CEE91E00E948302CBE4D6E4CE018D
:1006E0000197F1F763E08CEE91E00E94830221977D
:1006F000F1F763E08CEE91E00E94830283E592E0E3
:100700000197F1F762E08CEE91E00E948302809104
:10071000FB0180620E94030384E08093FC018CE073
:100720000E9403030E94090382E08093FD0186E09A
:10073000DF91CF910C94030380620E9403038BE44A
:1007400096E40197F1F78091FB0180620E94030318
:1007500083E592E00197F1F78091FB0180620E94AE
:100760000303D5CF9091FF01891710F08FEF890F08
:10077000E82FF0E0E451FE4F848980680C94030375
:1007800041E00E94B00281E090E008951F920F9234
:100790000FB60F9211242F933F938F939F93AF9394
:1007A000BF938091C1019091C201A091C301B0910A
:1007B000C4013091C00123E0230F2D3758F5019675
:1007C000A11DB11D2093C0018093C1019093C2016E
:1007D000A093C301B093C4018091C5019091C6015B
:1007E000A091C701B091C8010196A11DB11D8093D0
:1007F000C5019093C601A093C701B093C801BF91F2
:10080000AF919F918F913F912F910F900FBE0F90BD
:100810001F90189526E8230F0296A11DB11DD2CF77
:100820001F920F920FB60F9211242F933F934F9365
:100830005F936F937F938F939F93AF93BF93EF9348
:10084000FF93E091CB01F091CC01309749F0A68560
:10085000B7858585968D91FF14C09C918923A1F45D
:10086000FF91EF91BF91AF919F918F917F916F9188
:100870005F914F913F912F910F900FBE0F901F905E
:1008800018959C91892361F7A389B4899C918589E6
:10089000809589238C93868997890197F1F7608DDC
:1008A000718DA685B785558538E020E0CB0101978D
:1008B000F1F7822F90E095958795282F4C9145234D
:1008C00009F02068315091F7868D81FD2095809147
:1008D000CA0190E001968F7399273091C9013817AA
:1008E00099F0A091CA01B0E0A058BE4F2C9380931C
:1008F000CA01828D938D0197F1F7A389B4898C91F8
:100900009589892B8C93ACCF868D8160868FF1CFB2
:10091000789484B5826084BD84B5816084BD85B5DA
:10092000826085BD85B5816085BD80916E008160E6
:1009300080936E001092810080918100826080938C
:10094000810080918100816080938100809180008E
:100950008160809380008091B10084608093B100B9
:100960008091B00081608093B00080917A008460B3
:1009700080937A0080917A00826080937A008091DF
:100980007A00816080937A0080917A0080688093F9
:100990007A001092C10082E00E94110360E089E0B9
:1009A0000E94110161E08AE00E9411011092E801A9
:1009B0001092E7011092E6011092E5011092E40115
:1009C0001092E3018DE991E09093EA018093E901AF
:1009D0009091D901963108F047C02DEB30E030936B
:1009E000E4012093E3012BE931E03093E601209309
:1009F000E5012CE231E03093E8012093E7012091FA
:100A0000680084E0983048F031E09E3008F430E02F
:100A100081E001C0880F3A95EAF7822B8093680045
:100A20002DE630E0983050F02BE630E09E3030F08C
:100A30002CE630E0963110F030E020E03093E10118
:100A40002093E001292F30E0983008F0EFC081E0DA
:100A500001C0880F9A95EAF78093E2018091E9013D
:100A60009091EA010197F1F78091E7019091E801F7
:100A7000892B49F1E091CB01F091CC0181E0ED3C73
:100A8000F80709F1309739F0A389B4899C918589D9
:100A9000809589238C938091EB018E7F8093EB016D
:100AA0001092CA011092C9018DEC91E09093CC0193
:100AB0008093CB01E091E001F091E1018081909180
:100AC000E201892B808368EE73E080E090E00E9471
:100AD00067010E94090380E00E94B20361E271E0B5
:100AE0008CEE91E00E944B0281E00E94B20361E330
:100AF00071E08CEE91E00E944B02C7EBD0E003EA7C
:100B000010E09FE8E92E90E0F92E20E0C22E20E0D0
:100B1000D22EFE018491F801A490F701B490BB207D
:100B200009F47DC081110E94BA00EB2DF0E0EE0FB8
:100B3000FF1FE458FF4FA591B4918C91A82209F4AE
:100B40006EC00E94090380E00E94B20367E371E077
:100B50008CEE91E00E944B0261E08AE00E94E3008B
:100B600068EB7BE080E090E00E94670160E08AE053
:100B70000E94E30068E873E180E090E00E94670172
:100B80000E94090380E00E94B20361E271E08CEEF2
:100B900091E00E944B0281E00E94B20361E371E0A8
:100BA0008CEE91E00E944B028AE491E00E945A028E
:100BB00064E670E080E090E00E94670184E591E0E7
:100BC0000E945A0264E670E080E090E00E946701B3
:100BD00080E791E00E945A0264E670E080E090E0D5
:100BE0000E9467016AE18DEC91E00E94B3016EE121
:100BF00071E08DEC91E00E944B0264E670E080E0D1
:100C000090E00E9467016EE171E08DEC91E00E943E
:100C10004B0268E873E180E090E00E946701C11434
:100C2000D10409F476CF0E94000073CF9E3040F4C7
:100C30002850310981E001C0880F2A95EAF70CCFCE
:100C40002E503109F7CF1092D0011092CF0188EECB
:100C500093E0A0E0B0E08093D1019093D201A09303
:100C6000D301B093D40180E191E09093CE018093C1
:100C7000CD011092E4011092E3011092E60110926E
:100C8000E5011092E8011092E7011092EA0110923A
:100C9000E9016091EB016E7F6D7F6093EB016695DA
:100CA000617081E0682788E00E94E30061E088E0ED
:100CB0000E941101E2EAF0E0E491E093DD01EEE848
:100CC000F0E0E491F0E0EE0FFF1FEE58FF4F85914A
:100CD00094919093DF018093DE0160E087E00E94B1
:100CE00011018091EB0181FD04C061E087E00E9469
:100CF000E30087E08093D901E1EAF0E0E491E0933A
:100D0000DA01EDE8F0E0E491F0E0EE0FFF1FE458C7
:100D1000FF4F859194919093DC018093DB011092B9
:100D2000EF011092EE0184E091E09093ED01809349
:100D3000EC018CE08093F0018FEF8093F1018BE068
:100D40008093F20185E08093F30184E08093F401C5
:100D500083E08093F50182E08093F6011092F70121
:100D60001092F8011092F9011092FA011092FB0111
:100D700081E00C94110380E191E09093CE01809387
:100D8000CD018091CB019091CC018D5C914071F4AB
:100D9000E091E001F091E10190818091E201809584
:100DA000892380831092CC011092CB01089597FB88
:100DB000072E16F4009407D077FD09D00E94EB06A9
:100DC00007FC05D03EF4909581959F4F089570954E
:100DD00061957F4F0895AA1BBB1B51E107C0AA1F55
:100DE000BB1FA617B70710F0A61BB70B881F991FCC
:100DF0005A95A9F780959095BC01CD010895EE0F05
:100E0000FF1F0590F491E02D099410E0C2E6D0E0B8
:100E100004C0FE010E94FF062196C336D107C9F720
:040E2000F894FFCF74
:100E240000000000C0038D0048029901000000008A
:100E3400B3018D004802B2010F0227029A010D0A84
:100E44000053656375726974792053797374656DA1
:100E540000526561647900496E747275646572202C
:100E64004465746563746564210041542B434D47A4
:100E7400463D31004154202B20434D4753203D2013
:100E8400222B323534373334353637383930220073
:100E9400496E74727564657220616C6572742100A8
:00000001FF
